{
  "contractName": "WoBToken",
  "abi": [
    {
      "constant": true,
      "inputs": [],
      "name": "totalSupply",
      "outputs": [
        {
          "internalType": "uint256",
          "name": "",
          "type": "uint256"
        }
      ],
      "payable": false,
      "stateMutability": "view",
      "type": "function"
    },
    {
      "constant": false,
      "inputs": [],
      "name": "WoBTokenFunction",
      "outputs": [],
      "payable": false,
      "stateMutability": "nonpayable",
      "type": "function"
    }
  ],
  "bytecode": "0x6080604052348015600f57600080fd5b5060a28061001e6000396000f3fe6080604052348015600f57600080fd5b506004361060325760003560e01c806318160ddd146037578063430ff695146053575b600080fd5b603d605b565b6040518082815260200191505060405180910390f35b60596061565b005b60005481565b620f424060008190555056fea265627a7a723158202da54016b4f337338689865ec3d4bd1f938949cd4bc2c72f062262c2706253a264736f6c63430005100032",
  "source": "pragma solidity ^0.5.0;\n\ncontract WoBToken {\n  uint256 public totalSupply;\n\n  function WoBTokenFunction() public {\n    totalSupply = 1000000;\n  }\n}\n\n",
  "sourcePath": "/Users/lukaszk/code/Lukaszk01/Blockchain_App/currency/contracts/WoBToken.sol",
  "compiler": {
    "name": "solc",
    "version": "0.5.16+commit.9c3226ce.Emscripten.clang"
  },
  "schemaVersion": "3.2.3",
  "updatedAt": "2020-08-19T08:05:52.391Z",
  "devdoc": {
    "methods": {}
  },
  "userdoc": {
    "methods": {}
  }
}