{
  "contractName": "TodoList",
  "abi": [
    {
      "constant": true,
      "inputs": [],
      "name": "taskCount",
      "outputs": [
        {
          "internalType": "uint256",
          "name": "",
          "type": "uint256"
        }
      ],
      "payable": false,
      "stateMutability": "view",
      "type": "function"
    }
  ],
  "bytecode": "0x608060405260008055348015601357600080fd5b506080806100226000396000f3fe6080604052348015600f57600080fd5b506004361060285760003560e01c8063b6cb58a514602d575b600080fd5b60336045565b60408051918252519081900360200190f35b6000548156fea265627a7a723158206f9dd25d0920db383d98019af146015b8bf260e38930479b5b0862e86c867f7964736f6c63430005100032",
  "source": "pragma solidity ^0.5.0;\n\ncontract TodoList {\n  uint public taskCount =0;\n}\n",
  "sourcePath": "/Users/lukaszk/code/Lukaszk01/Blockchain_App/eth-todo-list/contracts/TodoList.sol",
  "compiler": {
    "name": "solc",
    "version": "0.5.16+commit.9c3226ce.Emscripten.clang"
  },
  "schemaVersion": "3.2.2",
  "updatedAt": "2020-07-24T10:20:43.115Z",
  "devdoc": {
    "methods": {}
  },
  "userdoc": {
    "methods": {}
  }
}